:020000040000fa
:080000000002040000000000f2
:020000040000fa
:04000800f8020000fa
:020000040000fa
:04000c00f8020000f6
:020000040000fa
:04001000f8020000f2
:020000040000fa
:04001400f8020000ee
:020000040000fa
:04001800f8020000ea
:020000040000fa
:04001c00f8020000e6
:020000040000fa
:04002000f8020000e2
:020000040000fa
:04002400f8020000de
:020000040000fa
:04002800f8020000da
:020000040000fa
:04002c00f8020000d6
:020000040000fa
:04003000f8020000d2
:020000040000fa
:04003400e6020000e0
:020000040000fa
:04003800f8020000ca
:020000040000fa
:04003c00f8020000c6
:020000040000fa
:04004000f8020000c2
:020000040000fa
:04004400c8020000ee
:020000040000fa
:04004800f8020000ba
:020000040000fa
:04004c00f8020000b6
:020000040000fa
:04005000f8020000b2
:020000040000fa
:04005400f8020000ae
:020000040000fa
:04005800f8020000aa
:020000040000fa
:04005c00f8020000a6
:020000040000fa
:04006000f8020000a2
:020000040000fa
:04006400f80200009e
:020000040000fa
:04006800f80200009a
:020000040000fa
:04006c00f802000096
:020000040000fa
:04007000f802000092
:020000040000fa
:04007400f80200008e
:020000040000fa
:04007800f80200008a
:020000040000fa
:04007c00f802000086
:020000040000fa
:04008000f802000082
:020000040000fa
:04008400f80200007e
:020000040000fa
:04008800f80200007a
:020000040000fa
:04008c00f802000076
:020000040000fa
:04009000f802000072
:020000040000fa
:04009400f80200006e
:020000040000fa
:04009800f80200006a
:020000040000fa
:04009c00f802000066
:020000040000fa
:0400a000f802000062
:020000040000fa
:0400a400f80200005e
:020000040000fa
:0400a800f80200005a
:020000040000fa
:0400ac00f802000056
:020000040000fa
:0400b000f802000052
:020000040000fa
:0400b400f80200004e
:020000040000fa
:0400b800f80200004a
:020000040000fa
:0400bc00f802000046
:020000040000fa
:0400c000f802000042
:020000040000fa
:0400c400f80200003e
:020000040000fa
:0400c800f80200003a
:020000040000fa
:0400cc00f802000036
:020000040000fa
:0400d000f802000032
:020000040000fa
:0400d400f80200002e
:020000040000fa
:0400d800f80200002a
:020000040000fa
:0400dc00f802000026
:020000040000fa
:0400e000f802000022
:020000040000fa
:0400e400f80200001e
:020000040000fa
:0400e800f80200001a
:020000040000fa
:0400ec00f802000016
:020000040000fa
:0400f000f802000012
:020000040000fa
:0400f400f80200000e
:020000040000fa
:0400f800f80200000a
:020000040000fa
:0400fc00f802000006
:020000040000fa
:04010000f802000001
:020000040000fa
:04010400f8020000fd
:020000040000fa
:04010800f8020000f9
:020000040000fa
:04010c00f8020000f5
:020000040000fa
:04011000f8020000f1
:020000040000fa
:04011400f8020000ed
:020000040000fa
:04011800f8020000e9
:020000040000fa
:04011c00f8020000e5
:020000040000fa
:04012000f8020000e1
:020000040000fa
:04012400f8020000dd
:020000040000fa
:04012800f8020000d9
:020000040000fa
:04012c00f8020000d5
:020000040000fa
:04013000f8020000d1
:020000040000fa
:04013400f8020000cd
:020000040000fa
:04013800f8020000c9
:020000040000fa
:04013c00f8020000c5
:020000040000fa
:04014000f8020000c1
:020000040000fa
:04014400f8020000bd
:020000040000fa
:04014800f8020000b9
:020000040000fa
:04014c00f8020000b5
:020000040000fa
:04015000f8020000b1
:020000040000fa
:04015400f8020000ad
:020000040000fa
:04015800f8020000a9
:020000040000fa
:04015c00f8020000a5
:020000040000fa
:04020800f8020000f8
:020000040000fa
:04020c00f8020000f4
:020000040000fa
:04021000f8020000f0
:020000040000fa
:04021400f8020000ec
:020000040000fa
:04021800f8020000e8
:020000040000fa
:04021c00f8020000e4
:020000040000fa
:04022000f8020000e0
:020000040000fa
:04022400f8020000dc
:020000040000fa
:04022800f8020000d8
:020000040000fa
:04022c00f8020000d4
:020000040000fa
:04023000f8020000d0
:020000040000fa
:04023400e6020000de
:020000040000fa
:04023800f8020000c8
:020000040000fa
:04023c00f8020000c4
:020000040000fa
:04024000f8020000c0
:020000040000fa
:04024400c8020000ec
:020000040000fa
:04024800f8020000b8
:020000040000fa
:04024c00f8020000b4
:020000040000fa
:04025000f8020000b0
:020000040000fa
:04025400f8020000ac
:020000040000fa
:04025800f8020000a8
:020000040000fa
:04025c00f8020000a4
:020000040000fa
:04026000f8020000a0
:020000040000fa
:04026400f80200009c
:020000040000fa
:04026800f802000098
:020000040000fa
:04026c00f802000094
:020000040000fa
:04027000f802000090
:020000040000fa
:04027400f80200008c
:020000040000fa
:04027800f802000088
:020000040000fa
:04027c00f802000084
:020000040000fa
:04028000f802000080
:020000040000fa
:04028400f80200007c
:020000040000fa
:04028800f802000078
:020000040000fa
:04028c00f802000074
:020000040000fa
:04029000f802000070
:020000040000fa
:04029400f80200006c
:020000040000fa
:04029800f802000068
:020000040000fa
:04029c00f802000064
:020000040000fa
:0402a000f802000060
:020000040000fa
:0402a400f80200005c
:020000040000fa
:0402a800f802000058
:020000040000fa
:0402ac00f802000054
:020000040000fa
:0402b000f802000050
:020000040000fa
:0402b400f80200004c
:020000040000fa
:0402b800f802000048
:020000040000fa
:0402bc00f802000044
:020000040000fa
:0402c000f802000040
:020000040000fa
:0402c400f80200003c
:020000040000fa
:0402c800f802000038
:020000040000fa
:0402cc00f802000034
:020000040000fa
:0402d000f802000030
:020000040000fa
:0402d400f80200002c
:020000040000fa
:0402d800f802000028
:020000040000fa
:0402dc00f802000024
:020000040000fa
:0402e000f802000020
:020000040000fa
:0402e400f80200001c
:020000040000fa
:0402e800f802000018
:020000040000fa
:0402ec00f802000014
:020000040000fa
:0402f000f802000010
:020000040000fa
:0402f400f80200000c
:020000040000fa
:0402f800f802000008
:020000040000fa
:0402fc00f802000004
:020000040000fa
:04030000f8020000ff
:020000040000fa
:04030400f8020000fb
:020000040000fa
:04030800f8020000f7
:020000040000fa
:04030c00f8020000f3
:020000040000fa
:04031000f8020000ef
:020000040000fa
:04031400f8020000eb
:020000040000fa
:04031800f8020000e7
:020000040000fa
:04031c00f8020000e3
:020000040000fa
:04032000f8020000df
:020000040000fa
:04032400f8020000db
:020000040000fa
:04032800f8020000d7
:020000040000fa
:04032c00f8020000d3
:020000040000fa
:04033000f8020000cf
:020000040000fa
:04033400f8020000cb
:020000040000fa
:04033800f8020000c7
:020000040000fa
:04033c00f8020000c3
:020000040000fa
:04034000f8020000bf
:020000040000fa
:04034400f8020000bb
:020000040000fa
:04034800f8020000b7
:020000040000fa
:04034c00f8020000b3
:020000040000fa
:04035000f8020000af
:020000040000fa
:04035400f8020000ab
:020000040000fa
:04035800f8020000a7
:020000040000fa
:04035c00f8020000a3
:020000040000fa
:100400002f8020000edf20000e0188000000000079
:10041000000020000000e000020032000001200087
:100420002002880014000700730007000000e000ad
:1004300003003a00404f2000010020000200370076
:100440000000200001002000810f70000100320038
:1004500014000700000020000000e000020032004d
:100460000000020000000000ec0402000000000098
:100470000040da000000fe004440a9000000200017
:100480000000e0000300320000002000a00188000e
:100490004440a800000006008a1f78008b1f7800e7
:1004a0000000060091018800800478000000eb0045
:1004b0001a003700e284440032a0b4009905ba0063
:1004c000e284440032a0b4009906ba00e2844400f9
:1004d00032a0b4000006eb00476fde00fd07b2005b
:1004e000636ce10003003a00ebff07000000eb0043
:1004f0000a003700606ce10004003a00005deb0088
:100500008b05e900fdff3e00040037006168e10053
:10051000010032000086eb000b00070019c7ba008b
:100520001905ba000e04e00003003a000a00e000da
:10053000e0ff3a0000000600fe07b2009e018800be
:100540008a047800f5ff3700395dba008b05e900b1
:100550000c003200295dba008b05e900080032006a
:100560000c00e00003003a00e284440032a0b40032
:10057000f5ff370019ddba008b05e900faff3a00f4
:100580008904e800e184440032a0b40000000600c1
:10059000801f78000000fa0084e0a90000c8bf00b6
:1005a0000004e00003003200c4c2a9000068ef00ac
:1005b00003003700c4c2a80010c0b30000e8b700b1
:1005c0000080fa004f00780000400600801f78008d
:1005d0000000fa008460a90010c0b30001e8b70071
:1005e00005e1a9000080fa004f00780000400600f5
:1005f0000040da000000fe0000000500839f680054
:100600000100e00002003d0060001000e0801800e2
:100610000300e00002003d0060011100e0811900cc
:10062000050007004f00e00002003b0060001000e2
:10063000e0801800000006006022b80006022000da
:100640000000d0008180d2000482d2008582d200d6
:100650000000a0000202520083825a000300310011
:100660000202420083824a000000a1000603e90062
:08067000f3ff3a000000060050
:020000040000fa
:100678000000fa000080eb0060198800c082a80022
:100688006800a800c8e2a8006ae0a800c882a8001c
:100698006820a800c922a900cd22a800c0c2a900cc
:1006a800c4c2a800401f2000920007001061a900e2
:1006b80081088000f0fc2f00008060000040a0004e
:1006c800800888001021a90011a1a9003105800027
:1006d800f0ff28000080600000c0a00030058800fe
:1006e80084e0a90094e0a80090d023006008880066
:1006f8000621ef0011e1a8000080fa0000000600c2
:100708000000fa0050168000700060000000e00051
:100718000c003a005116800000082000008060009c
:100728000000e00007003a00cd22a80010002000d9
:1007380029000700cd22a90010002000260007008c
:100748002300370051168000000820000080600058
:100758000000e00007003a00cd22a800a00f20000a
:100768001d000700cd22a900a00f20001a000700d5
:100778001700370050168000700060000000e0008d
:1007880007003a00cd22a800803e20001200070092
:10079800cd22a900803e20000f0007000c00370082
:1007a80010168000700060000000e00007003a00aa
:1007b800cd22a8000077210007000700cd22a9005c
:1007c800007721000400070001003700cd22a900ae
:1007d8000080fa00000006000200fa00000f78000e
:1007e8000168ef000421a90005a1a9000021ef007c
:1007f80021058000f0ff28000080600000c0a000f4
:10080800200588008460a9009460a8007038210041
:100818009e007800808f500017003e00210880005d
:10082800f0fc2f00008060000040a0002008880035
:100838001e0078008000eb0002092d000289b90033
:10084800020178006302b9008401780003014100c5
:1008580003092d000300b80001014100820078005f
:1008680002f421000300200062ff07000000780066
:10087800100888001600370021088000f0fc2f00bf
:10088800008060000050a000200888001e0078004a
:100898008000eb0002092d000289b90002017800ee
:1008a8006302b900840178000301410003092d00a7
:1008b8000300b800010141008200780002a02f0067
:1008c800030020004bff0700000078001008880094
:1008d80005e1a800010037000140fe0001c8bf0083
:1008e8000004e000fcff32008460a9000080fa00e8
:1008f800000006000400fa00100798001e0090008f
:1009080001022000810f50000b003200411f20001f
:10091800810f500005003200e80f500009003a002e
:100928000040eb00004f78000800370060c6b300b5
:10093800004f78000500370050c5b300004f78001d
:100948000200370050c5b300004f78001102800044
:10095800000e20000100700010028800213a80007b
:10096800f08f2f0000806000203a88001e81fb0075
:1009780080072000a10920003374200080497800f6
:100988008149780082497800120020006004200024
:10099800710520002374200080497800814978007f
:1009a8008249780000000000103a80006100600071
:1009b8000000e000fcff3a0011028000f0f12f0077
:1009c80000806000100288000080fa000000060025
:1009d8000000fa0026ff070049ff0700feff370066
:020000040000fa
:1009e80000080000020000000000000000000000f5
:020000040000fa
:0200000401f009
:04000000ffffff00ff
:020000040000fa
:0200000401f009
:04000800ffffff00f7
:020000040000fa
:0200000401f009
:04000c0000000000f0
:020000040000fa
:0200000401f009
:040010007b00000071
:020000040000fa
:0200000401f009
:040014005f00000089
:020000040000fa
:0200000401f009
:04001800fb000000e9
:020000040000fa
:0200000401f009
:04001c00c20000001e
:020000040000fa
:0200000401f009
:04002000ff000000dd
:00000001FF
